{
  "_format": "hh-sol-artifact-1",
  "contractName": "ePassport",
  "sourceName": "contracts/ePassport.sol",
  "abi": [
    {
      "inputs": [],
      "stateMutability": "nonpayable",
      "type": "constructor"
    },
    {
      "anonymous": false,
      "inputs": [
        {
          "indexed": true,
          "internalType": "address",
          "name": "owner",
          "type": "address"
        },
        {
          "indexed": true,
          "internalType": "address",
          "name": "approved",
          "type": "address"
        },
        {
          "indexed": true,
          "internalType": "uint256",
          "name": "tokenId",
          "type": "uint256"
        }
      ],
      "name": "Approval",
      "type": "event"
    },
    {
      "anonymous": false,
      "inputs": [
        {
          "indexed": true,
          "internalType": "address",
          "name": "owner",
          "type": "address"
        },
        {
          "indexed": true,
          "internalType": "address",
          "name": "operator",
          "type": "address"
        },
        {
          "indexed": false,
          "internalType": "bool",
          "name": "approved",
          "type": "bool"
        }
      ],
      "name": "ApprovalForAll",
      "type": "event"
    },
    {
      "anonymous": false,
      "inputs": [
        {
          "indexed": true,
          "internalType": "address",
          "name": "previousOwner",
          "type": "address"
        },
        {
          "indexed": true,
          "internalType": "address",
          "name": "newOwner",
          "type": "address"
        }
      ],
      "name": "OwnershipTransferred",
      "type": "event"
    },
    {
      "anonymous": false,
      "inputs": [
        {
          "indexed": false,
          "internalType": "uint256",
          "name": "tokenId",
          "type": "uint256"
        },
        {
          "indexed": false,
          "internalType": "address",
          "name": "owner",
          "type": "address"
        }
      ],
      "name": "PassportMinted",
      "type": "event"
    },
    {
      "anonymous": false,
      "inputs": [
        {
          "indexed": true,
          "internalType": "address",
          "name": "from",
          "type": "address"
        },
        {
          "indexed": true,
          "internalType": "address",
          "name": "to",
          "type": "address"
        },
        {
          "indexed": true,
          "internalType": "uint256",
          "name": "tokenId",
          "type": "uint256"
        }
      ],
      "name": "Transfer",
      "type": "event"
    },
    {
      "inputs": [],
      "name": "MAX_TOKENS",
      "outputs": [
        {
          "internalType": "uint256",
          "name": "",
          "type": "uint256"
        }
      ],
      "stateMutability": "view",
      "type": "function"
    },
    {
      "inputs": [
        {
          "internalType": "address[]",
          "name": "addresses",
          "type": "address[]"
        }
      ],
      "name": "addToPresaleList",
      "outputs": [],
      "stateMutability": "nonpayable",
      "type": "function"
    },
    {
      "inputs": [
        {
          "internalType": "address",
          "name": "to",
          "type": "address"
        },
        {
          "internalType": "uint256",
          "name": "tokenId",
          "type": "uint256"
        }
      ],
      "name": "approve",
      "outputs": [],
      "stateMutability": "nonpayable",
      "type": "function"
    },
    {
      "inputs": [
        {
          "internalType": "address",
          "name": "owner",
          "type": "address"
        }
      ],
      "name": "balanceOf",
      "outputs": [
        {
          "internalType": "uint256",
          "name": "",
          "type": "uint256"
        }
      ],
      "stateMutability": "view",
      "type": "function"
    },
    {
      "inputs": [],
      "name": "baseURI",
      "outputs": [
        {
          "internalType": "string",
          "name": "",
          "type": "string"
        }
      ],
      "stateMutability": "view",
      "type": "function"
    },
    {
      "inputs": [],
      "name": "devReserve",
      "outputs": [
        {
          "internalType": "uint256",
          "name": "",
          "type": "uint256"
        }
      ],
      "stateMutability": "view",
      "type": "function"
    },
    {
      "inputs": [
        {
          "internalType": "uint256",
          "name": "tokenId",
          "type": "uint256"
        }
      ],
      "name": "getApproved",
      "outputs": [
        {
          "internalType": "address",
          "name": "",
          "type": "address"
        }
      ],
      "stateMutability": "view",
      "type": "function"
    },
    {
      "inputs": [
        {
          "internalType": "address",
          "name": "owner",
          "type": "address"
        },
        {
          "internalType": "address",
          "name": "operator",
          "type": "address"
        }
      ],
      "name": "isApprovedForAll",
      "outputs": [
        {
          "internalType": "bool",
          "name": "",
          "type": "bool"
        }
      ],
      "stateMutability": "view",
      "type": "function"
    },
    {
      "inputs": [],
      "name": "isRevealed",
      "outputs": [
        {
          "internalType": "bool",
          "name": "",
          "type": "bool"
        }
      ],
      "stateMutability": "view",
      "type": "function"
    },
    {
      "inputs": [],
      "name": "maxTokenPurchase",
      "outputs": [
        {
          "internalType": "uint256",
          "name": "",
          "type": "uint256"
        }
      ],
      "stateMutability": "view",
      "type": "function"
    },
    {
      "inputs": [
        {
          "internalType": "uint256",
          "name": "numberOfTokens",
          "type": "uint256"
        }
      ],
      "name": "mintPassport",
      "outputs": [],
      "stateMutability": "payable",
      "type": "function"
    },
    {
      "inputs": [],
      "name": "name",
      "outputs": [
        {
          "internalType": "string",
          "name": "",
          "type": "string"
        }
      ],
      "stateMutability": "view",
      "type": "function"
    },
    {
      "inputs": [
        {
          "internalType": "address",
          "name": "addr",
          "type": "address"
        }
      ],
      "name": "onPreSaleList",
      "outputs": [
        {
          "internalType": "bool",
          "name": "",
          "type": "bool"
        }
      ],
      "stateMutability": "view",
      "type": "function"
    },
    {
      "inputs": [],
      "name": "owner",
      "outputs": [
        {
          "internalType": "address",
          "name": "",
          "type": "address"
        }
      ],
      "stateMutability": "view",
      "type": "function"
    },
    {
      "inputs": [
        {
          "internalType": "uint256",
          "name": "tokenId",
          "type": "uint256"
        }
      ],
      "name": "ownerOf",
      "outputs": [
        {
          "internalType": "address",
          "name": "",
          "type": "address"
        }
      ],
      "stateMutability": "view",
      "type": "function"
    },
    {
      "inputs": [
        {
          "internalType": "uint256",
          "name": "numberOfTokens",
          "type": "uint256"
        }
      ],
      "name": "preSalePassport",
      "outputs": [],
      "stateMutability": "payable",
      "type": "function"
    },
    {
      "inputs": [],
      "name": "presaleIsActive",
      "outputs": [
        {
          "internalType": "bool",
          "name": "",
          "type": "bool"
        }
      ],
      "stateMutability": "view",
      "type": "function"
    },
    {
      "inputs": [],
      "name": "presaleMaxMint",
      "outputs": [
        {
          "internalType": "uint256",
          "name": "",
          "type": "uint256"
        }
      ],
      "stateMutability": "view",
      "type": "function"
    },
    {
      "inputs": [
        {
          "internalType": "address[]",
          "name": "addresses",
          "type": "address[]"
        }
      ],
      "name": "removeFromPresaleList",
      "outputs": [],
      "stateMutability": "nonpayable",
      "type": "function"
    },
    {
      "inputs": [],
      "name": "renounceOwnership",
      "outputs": [],
      "stateMutability": "nonpayable",
      "type": "function"
    },
    {
      "inputs": [
        {
          "internalType": "address",
          "name": "_to",
          "type": "address"
        },
        {
          "internalType": "uint256",
          "name": "_reserveAmount",
          "type": "uint256"
        }
      ],
      "name": "reserveTokens",
      "outputs": [],
      "stateMutability": "nonpayable",
      "type": "function"
    },
    {
      "inputs": [],
      "name": "reveal",
      "outputs": [],
      "stateMutability": "nonpayable",
      "type": "function"
    },
    {
      "inputs": [
        {
          "internalType": "address",
          "name": "from",
          "type": "address"
        },
        {
          "internalType": "address",
          "name": "to",
          "type": "address"
        },
        {
          "internalType": "uint256",
          "name": "tokenId",
          "type": "uint256"
        }
      ],
      "name": "safeTransferFrom",
      "outputs": [],
      "stateMutability": "nonpayable",
      "type": "function"
    },
    {
      "inputs": [
        {
          "internalType": "address",
          "name": "from",
          "type": "address"
        },
        {
          "internalType": "address",
          "name": "to",
          "type": "address"
        },
        {
          "internalType": "uint256",
          "name": "tokenId",
          "type": "uint256"
        },
        {
          "internalType": "bytes",
          "name": "data",
          "type": "bytes"
        }
      ],
      "name": "safeTransferFrom",
      "outputs": [],
      "stateMutability": "nonpayable",
      "type": "function"
    },
    {
      "inputs": [],
      "name": "saleIsActive",
      "outputs": [
        {
          "internalType": "bool",
          "name": "",
          "type": "bool"
        }
      ],
      "stateMutability": "view",
      "type": "function"
    },
    {
      "inputs": [
        {
          "internalType": "address",
          "name": "operator",
          "type": "address"
        },
        {
          "internalType": "bool",
          "name": "approved",
          "type": "bool"
        }
      ],
      "name": "setApprovalForAll",
      "outputs": [],
      "stateMutability": "nonpayable",
      "type": "function"
    },
    {
      "inputs": [
        {
          "internalType": "string",
          "name": "_newBaseURI",
          "type": "string"
        }
      ],
      "name": "setBaseURI",
      "outputs": [],
      "stateMutability": "nonpayable",
      "type": "function"
    },
    {
      "inputs": [
        {
          "internalType": "uint256",
          "name": "maxMint",
          "type": "uint256"
        }
      ],
      "name": "setPresaleMaxMint",
      "outputs": [],
      "stateMutability": "nonpayable",
      "type": "function"
    },
    {
      "inputs": [
        {
          "internalType": "bytes4",
          "name": "interfaceId",
          "type": "bytes4"
        }
      ],
      "name": "supportsInterface",
      "outputs": [
        {
          "internalType": "bool",
          "name": "",
          "type": "bool"
        }
      ],
      "stateMutability": "view",
      "type": "function"
    },
    {
      "inputs": [],
      "name": "symbol",
      "outputs": [
        {
          "internalType": "string",
          "name": "",
          "type": "string"
        }
      ],
      "stateMutability": "view",
      "type": "function"
    },
    {
      "inputs": [],
      "name": "togglePresaleState",
      "outputs": [],
      "stateMutability": "nonpayable",
      "type": "function"
    },
    {
      "inputs": [],
      "name": "toggleSaleState",
      "outputs": [],
      "stateMutability": "nonpayable",
      "type": "function"
    },
    {
      "inputs": [
        {
          "internalType": "uint256",
          "name": "index",
          "type": "uint256"
        }
      ],
      "name": "tokenByIndex",
      "outputs": [
        {
          "internalType": "uint256",
          "name": "",
          "type": "uint256"
        }
      ],
      "stateMutability": "view",
      "type": "function"
    },
    {
      "inputs": [
        {
          "internalType": "address",
          "name": "owner",
          "type": "address"
        },
        {
          "internalType": "uint256",
          "name": "index",
          "type": "uint256"
        }
      ],
      "name": "tokenOfOwnerByIndex",
      "outputs": [
        {
          "internalType": "uint256",
          "name": "",
          "type": "uint256"
        }
      ],
      "stateMutability": "view",
      "type": "function"
    },
    {
      "inputs": [],
      "name": "tokenPrice",
      "outputs": [
        {
          "internalType": "uint256",
          "name": "",
          "type": "uint256"
        }
      ],
      "stateMutability": "view",
      "type": "function"
    },
    {
      "inputs": [
        {
          "internalType": "uint256",
          "name": "tokenId",
          "type": "uint256"
        }
      ],
      "name": "tokenURI",
      "outputs": [
        {
          "internalType": "string",
          "name": "",
          "type": "string"
        }
      ],
      "stateMutability": "view",
      "type": "function"
    },
    {
      "inputs": [
        {
          "internalType": "address",
          "name": "_owner",
          "type": "address"
        }
      ],
      "name": "tokensOfOwner",
      "outputs": [
        {
          "internalType": "uint256[]",
          "name": "",
          "type": "uint256[]"
        }
      ],
      "stateMutability": "view",
      "type": "function"
    },
    {
      "inputs": [],
      "name": "totalSupply",
      "outputs": [
        {
          "internalType": "uint256",
          "name": "",
          "type": "uint256"
        }
      ],
      "stateMutability": "view",
      "type": "function"
    },
    {
      "inputs": [
        {
          "internalType": "address",
          "name": "from",
          "type": "address"
        },
        {
          "internalType": "address",
          "name": "to",
          "type": "address"
        },
        {
          "internalType": "uint256",
          "name": "tokenId",
          "type": "uint256"
        }
      ],
      "name": "transferFrom",
      "outputs": [],
      "stateMutability": "nonpayable",
      "type": "function"
    },
    {
      "inputs": [
        {
          "internalType": "address",
          "name": "newOwner",
          "type": "address"
        }
      ],
      "name": "transferOwnership",
      "outputs": [],
      "stateMutability": "nonpayable",
      "type": "function"
    },
    {
      "inputs": [],
      "name": "withdraw",
      "outputs": [],
      "stateMutability": "payable",
      "type": "function"
    }
  ],
  "bytecode": "0x608060405260405180602001604052806000815250600b90816200002491906200048e565b506000600c60006101000a81548160ff0219169083151502179055506000600c60016101000a81548160ff0219169083151502179055506000600c60026101000a81548160ff0219169083151502179055506002600f5560406010553480156200008d57600080fd5b506040518060400160405280600981526020017f6550617373706f727400000000000000000000000000000000000000000000008152506040518060400160405280600981526020017f6550617373706f7274000000000000000000000000000000000000000000000081525081600090816200010b91906200048e565b5080600190816200011d91906200048e565b50505062000140620001346200014660201b60201c565b6200014e60201b60201c565b62000575565b600033905090565b6000600660009054906101000a900473ffffffffffffffffffffffffffffffffffffffff16905081600660006101000a81548173ffffffffffffffffffffffffffffffffffffffff021916908373ffffffffffffffffffffffffffffffffffffffff1602179055508173ffffffffffffffffffffffffffffffffffffffff168173ffffffffffffffffffffffffffffffffffffffff167f8be0079c531659141344cd1fd0a4f28419497f9722a3daafe3b4186f6b6457e060405160405180910390a35050565b600081519050919050565b7f4e487b7100000000000000000000000000000000000000000000000000000000600052604160045260246000fd5b7f4e487b7100000000000000000000000000000000000000000000000000000000600052602260045260246000fd5b600060028204905060018216806200029657607f821691505b602082108103620002ac57620002ab6200024e565b5b50919050565b60008190508160005260206000209050919050565b60006020601f8301049050919050565b600082821b905092915050565b600060088302620003167fffffffffffffffffffffffffffffffffffffffffffffffffffffffffffffffff82620002d7565b620003228683620002d7565b95508019841693508086168417925050509392505050565b6000819050919050565b6000819050919050565b60006200036f6200036962000363846200033a565b62000344565b6200033a565b9050919050565b6000819050919050565b6200038b836200034e565b620003a36200039a8262000376565b848454620002e4565b825550505050565b600090565b620003ba620003ab565b620003c781848462000380565b505050565b5b81811015620003ef57620003e3600082620003b0565b600181019050620003cd565b5050565b601f8211156200043e576200040881620002b2565b6200041384620002c7565b8101602085101562000423578190505b6200043b6200043285620002c7565b830182620003cc565b50505b505050565b600082821c905092915050565b6000620004636000198460080262000443565b1980831691505092915050565b60006200047e838362000450565b9150826002028217905092915050565b620004998262000214565b67ffffffffffffffff811115620004b557620004b46200021f565b5b620004c182546200027d565b620004ce828285620003f3565b600060209050601f831160018114620005065760008415620004f1578287015190505b620004fd858262000470565b8655506200056d565b601f1984166200051686620002b2565b60005b82811015620005405784890151825560018201915060208501945060208101905062000519565b868310156200056057848901516200055c601f89168262000450565b8355505b6001600288020188555050505b505050505050565b614fda80620005856000396000f3fe6080604052600436106102465760003560e01c80637204a3c911610139578063b5236146116100b6578063e985e9c51161007a578063e985e9c51461083f578063eb8d24441461087c578063f285e69e146108a7578063f2fde38b146108be578063f47c84c5146108e7578063fcd2a4271461091257610246565b8063b52361461461077d578063b88d4fde14610799578063c87b56dd146107c2578063daaeec86146107ff578063df4305d21461081657610246565b8063946ef42a116100fd578063946ef42a146106be57806395d89b41146106e9578063a22cb46514610714578063a475b5dd1461073d578063b179e0601461075457610246565b80637204a3c9146105d957806378cf19e9146106025780637ff9b5961461062b5780638462151c146106565780638da5cb5b1461069357610246565b806330f72cd4116101c757806355f804b31161018b57806355f804b3146104f45780636352211e1461051d5780636c0360eb1461055a57806370a0823114610585578063715018a6146105c257610246565b806330f72cd41461042e5780633ccfd60b1461045957806342842e0e146104635780634f6ccce71461048c57806354214f69146104c957610246565b806309aa3dcf1161020e57806309aa3dcf1461033557806311576b791461036057806318160ddd1461039d57806323b872dd146103c85780632f745c59146103f157610246565b806301ffc9a71461024b57806306fdde0314610288578063081812fc146102b3578063095ea7b3146102f0578063096d3bfd14610319575b600080fd5b34801561025757600080fd5b50610272600480360381019061026d9190613205565b61093d565b60405161027f919061324d565b60405180910390f35b34801561029457600080fd5b5061029d61094f565b6040516102aa91906132f8565b60405180910390f35b3480156102bf57600080fd5b506102da60048036038101906102d59190613350565b6109e1565b6040516102e791906133be565b60405180910390f35b3480156102fc57600080fd5b5061031760048036038101906103129190613405565b610a27565b005b610333600480360381019061032e9190613350565b610b3e565b005b34801561034157600080fd5b5061034a610d2e565b6040516103579190613454565b60405180910390f35b34801561036c57600080fd5b506103876004803603810190610382919061346f565b610d33565b604051610394919061324d565b60405180910390f35b3480156103a957600080fd5b506103b2610d89565b6040516103bf9190613454565b60405180910390f35b3480156103d457600080fd5b506103ef60048036038101906103ea919061349c565b610d96565b005b3480156103fd57600080fd5b5061041860048036038101906104139190613405565b610df6565b6040516104259190613454565b60405180910390f35b34801561043a57600080fd5b50610443610e9b565b604051610450919061324d565b60405180910390f35b610461610eae565b005b34801561046f57600080fd5b5061048a6004803603810190610485919061349c565b610f36565b005b34801561049857600080fd5b506104b360048036038101906104ae9190613350565b610f56565b6040516104c09190613454565b60405180910390f35b3480156104d557600080fd5b506104de610fc7565b6040516104eb919061324d565b60405180910390f35b34801561050057600080fd5b5061051b60048036038101906105169190613624565b610fda565b005b34801561052957600080fd5b50610544600480360381019061053f9190613350565b610ff5565b60405161055191906133be565b60405180910390f35b34801561056657600080fd5b5061056f6110a6565b60405161057c91906132f8565b60405180910390f35b34801561059157600080fd5b506105ac60048036038101906105a7919061346f565b611134565b6040516105b99190613454565b60405180910390f35b3480156105ce57600080fd5b506105d76111eb565b005b3480156105e557600080fd5b5061060060048036038101906105fb91906136cd565b6111ff565b005b34801561060e57600080fd5b5061062960048036038101906106249190613405565b611342565b005b34801561063757600080fd5b506106406113f0565b60405161064d9190613454565b60405180910390f35b34801561066257600080fd5b5061067d6004803603810190610678919061346f565b6113fb565b60405161068a91906137d8565b60405180910390f35b34801561069f57600080fd5b506106a8611504565b6040516106b591906133be565b60405180910390f35b3480156106ca57600080fd5b506106d361152e565b6040516106e09190613454565b60405180910390f35b3480156106f557600080fd5b506106fe611534565b60405161070b91906132f8565b60405180910390f35b34801561072057600080fd5b5061073b60048036038101906107369190613826565b6115c6565b005b34801561074957600080fd5b506107526115dc565b005b34801561076057600080fd5b5061077b600480360381019061077691906136cd565b611601565b005b61079760048036038101906107929190613350565b611744565b005b3480156107a557600080fd5b506107c060048036038101906107bb9190613907565b611aae565b005b3480156107ce57600080fd5b506107e960048036038101906107e49190613350565b611b10565b6040516107f691906132f8565b60405180910390f35b34801561080b57600080fd5b50610814611c42565b005b34801561082257600080fd5b5061083d60048036038101906108389190613350565b611c76565b005b34801561084b57600080fd5b506108666004803603810190610861919061398a565b611c88565b604051610873919061324d565b60405180910390f35b34801561088857600080fd5b50610891611d1c565b60405161089e919061324d565b60405180910390f35b3480156108b357600080fd5b506108bc611d2f565b005b3480156108ca57600080fd5b506108e560048036038101906108e0919061346f565b611d63565b005b3480156108f357600080fd5b506108fc611de6565b6040516109099190613454565b60405180910390f35b34801561091e57600080fd5b50610927611dec565b6040516109349190613454565b60405180910390f35b600061094882611df2565b9050919050565b60606000805461095e906139f9565b80601f016020809104026020016040519081016040528092919081815260200182805461098a906139f9565b80156109d75780601f106109ac576101008083540402835291602001916109d7565b820191906000526020600020905b8154815290600101906020018083116109ba57829003601f168201915b5050505050905090565b60006109ec82611e6c565b6004600083815260200190815260200160002060009054906101000a900473ffffffffffffffffffffffffffffffffffffffff169050919050565b6000610a3282610ff5565b90508073ffffffffffffffffffffffffffffffffffffffff168373ffffffffffffffffffffffffffffffffffffffff1603610aa2576040517f08c379a0000000000000000000000000000000000000000000000000000000008152600401610a9990613a9c565b60405180910390fd5b8073ffffffffffffffffffffffffffffffffffffffff16610ac1611eb7565b73ffffffffffffffffffffffffffffffffffffffff161480610af05750610aef81610aea611eb7565b611c88565b5b610b2f576040517f08c379a0000000000000000000000000000000000000000000000000000000008152600401610b2690613b2e565b60405180910390fd5b610b398383611ebf565b505050565b600c60009054906101000a900460ff16610b8d576040517f08c379a0000000000000000000000000000000000000000000000000000000008152600401610b8490613bc0565b60405180910390fd5b600081118015610b9e575060038111155b610bdd576040517f08c379a0000000000000000000000000000000000000000000000000000000008152600401610bd490613c52565b60405180910390fd5b612710610bfa82610bec610d89565b611f7890919063ffffffff16565b1115610c3b576040517f08c379a0000000000000000000000000000000000000000000000000000000008152600401610c3290613ce4565b60405180910390fd5b610c55816606c00a3912c000611f8e90919063ffffffff16565b341015610c97576040517f08c379a0000000000000000000000000000000000000000000000000000000008152600401610c8e90613d50565b60405180910390fd5b60005b81811015610d2a576000610cbf6001610cb1610d89565b611f7890919063ffffffff16565b9050612710610ccc610d89565b1015610d1657610cdc3382611fa4565b7ff835adb445aa153c0fc7b7b5e69cdc8223be12b6fd7ab78c4fc32e4d1f9da22b8133604051610d0d929190613d70565b60405180910390a15b508080610d2290613dc8565b915050610c9a565b5050565b600381565b6000600d60008373ffffffffffffffffffffffffffffffffffffffff1673ffffffffffffffffffffffffffffffffffffffff16815260200190815260200160002060009054906101000a900460ff169050919050565b6000600980549050905090565b610da7610da1611eb7565b82611fc2565b610de6576040517f08c379a0000000000000000000000000000000000000000000000000000000008152600401610ddd90613e82565b60405180910390fd5b610df1838383612057565b505050565b6000610e0183611134565b8210610e42576040517f08c379a0000000000000000000000000000000000000000000000000000000008152600401610e3990613f14565b60405180910390fd5b600760008473ffffffffffffffffffffffffffffffffffffffff1673ffffffffffffffffffffffffffffffffffffffff168152602001908152602001600020600083815260200190815260200160002054905092915050565b600c60019054906101000a900460ff1681565b610eb66122bd565b6000610ec0611504565b73ffffffffffffffffffffffffffffffffffffffff1647604051610ee390613f65565b60006040518083038185875af1925050503d8060008114610f20576040519150601f19603f3d011682016040523d82523d6000602084013e610f25565b606091505b5050905080610f3357600080fd5b50565b610f5183838360405180602001604052806000815250611aae565b505050565b6000610f60610d89565b8210610fa1576040517f08c379a0000000000000000000000000000000000000000000000000000000008152600401610f9890613fec565b60405180910390fd5b60098281548110610fb557610fb461400c565b5b90600052602060002001549050919050565b600c60029054906101000a900460ff1681565b610fe26122bd565b80600b9081610ff191906141e7565b5050565b6000806002600084815260200190815260200160002060009054906101000a900473ffffffffffffffffffffffffffffffffffffffff169050600073ffffffffffffffffffffffffffffffffffffffff168173ffffffffffffffffffffffffffffffffffffffff160361109d576040517f08c379a000000000000000000000000000000000000000000000000000000000815260040161109490614305565b60405180910390fd5b80915050919050565b600b80546110b3906139f9565b80601f01602080910402602001604051908101604052809291908181526020018280546110df906139f9565b801561112c5780601f106111015761010080835404028352916020019161112c565b820191906000526020600020905b81548152906001019060200180831161110f57829003601f168201915b505050505081565b60008073ffffffffffffffffffffffffffffffffffffffff168273ffffffffffffffffffffffffffffffffffffffff16036111a4576040517f08c379a000000000000000000000000000000000000000000000000000000000815260040161119b90614397565b60405180910390fd5b600360008373ffffffffffffffffffffffffffffffffffffffff1673ffffffffffffffffffffffffffffffffffffffff168152602001908152602001600020549050919050565b6111f36122bd565b6111fd600061233b565b565b6112076122bd565b60005b8282905081101561133d57600073ffffffffffffffffffffffffffffffffffffffff168383838181106112405761123f61400c565b5b9050602002016020810190611255919061346f565b73ffffffffffffffffffffffffffffffffffffffff16036112ab576040517f08c379a00000000000000000000000000000000000000000000000000000000081526004016112a290614403565b60405180910390fd5b6001600d60008585858181106112c4576112c361400c565b5b90506020020160208101906112d9919061346f565b73ffffffffffffffffffffffffffffffffffffffff1673ffffffffffffffffffffffffffffffffffffffff16815260200190815260200160002060006101000a81548160ff021916908315150217905550808061133590613dc8565b91505061120a565b505050565b61134a6122bd565b60008111801561135c57506010548111155b61139b576040517f08c379a00000000000000000000000000000000000000000000000000000000081526004016113929061446f565b60405180910390fd5b60005b818110156113d05760006113b0610d89565b90506113bc8482611fa4565b5080806113c890613dc8565b91505061139e565b506113e68160105461240190919063ffffffff16565b6010819055505050565b6606c00a3912c00081565b6060600061140883611134565b90506000810361146457600067ffffffffffffffff81111561142d5761142c6134f9565b5b60405190808252806020026020018201604052801561145b5781602001602082028036833780820191505090505b509150506114ff565b60008167ffffffffffffffff8111156114805761147f6134f9565b5b6040519080825280602002602001820160405280156114ae5781602001602082028036833780820191505090505b50905060005b828110156114f8576114c68582610df6565b8282815181106114d9576114d861400c565b5b60200260200101818152505080806114f090613dc8565b9150506114b4565b8193505050505b919050565b6000600660009054906101000a900473ffffffffffffffffffffffffffffffffffffffff16905090565b600f5481565b606060018054611543906139f9565b80601f016020809104026020016040519081016040528092919081815260200182805461156f906139f9565b80156115bc5780601f10611591576101008083540402835291602001916115bc565b820191906000526020600020905b81548152906001019060200180831161159f57829003601f168201915b5050505050905090565b6115d86115d1611eb7565b8383612417565b5050565b6115e46122bd565b6001600c60026101000a81548160ff021916908315150217905550565b6116096122bd565b60005b8282905081101561173f57600073ffffffffffffffffffffffffffffffffffffffff168383838181106116425761164161400c565b5b9050602002016020810190611657919061346f565b73ffffffffffffffffffffffffffffffffffffffff16036116ad576040517f08c379a00000000000000000000000000000000000000000000000000000000081526004016116a490614403565b60405180910390fd5b6000600d60008585858181106116c6576116c561400c565b5b90506020020160208101906116db919061346f565b73ffffffffffffffffffffffffffffffffffffffff1673ffffffffffffffffffffffffffffffffffffffff16815260200190815260200160002060006101000a81548160ff021916908315150217905550808061173790613dc8565b91505061160c565b505050565b600c60019054906101000a900460ff16611793576040517f08c379a000000000000000000000000000000000000000000000000000000000815260040161178a906144db565b60405180910390fd5b600d60003373ffffffffffffffffffffffffffffffffffffffff1673ffffffffffffffffffffffffffffffffffffffff16815260200190815260200160002060009054906101000a900460ff1661181f576040517f08c379a000000000000000000000000000000000000000000000000000000000815260040161181690614547565b60405180910390fd5b61271061183c8261182e610d89565b611f7890919063ffffffff16565b111561187d576040517f08c379a0000000000000000000000000000000000000000000000000000000008152600401611874906145d9565b60405180910390fd5b60008111801561188f5750600f548111155b6118ce576040517f08c379a00000000000000000000000000000000000000000000000000000000081526004016118c590614645565b60405180910390fd5b600f5461192382600e60003373ffffffffffffffffffffffffffffffffffffffff1673ffffffffffffffffffffffffffffffffffffffff16815260200190815260200160002054611f7890919063ffffffff16565b1115611964576040517f08c379a000000000000000000000000000000000000000000000000000000000815260040161195b906146b1565b60405180910390fd5b61197e816606c00a3912c000611f8e90919063ffffffff16565b3410156119c0576040517f08c379a00000000000000000000000000000000000000000000000000000000081526004016119b790613d50565b60405180910390fd5b60005b81811015611aaa5760006119e860016119da610d89565b611f7890919063ffffffff16565b90506127106119f5610d89565b1015611a96576001600e60003373ffffffffffffffffffffffffffffffffffffffff1673ffffffffffffffffffffffffffffffffffffffff1681526020019081526020016000206000828254611a4b91906146d1565b92505081905550611a5c3382611fa4565b7ff835adb445aa153c0fc7b7b5e69cdc8223be12b6fd7ab78c4fc32e4d1f9da22b8133604051611a8d929190613d70565b60405180910390a15b508080611aa290613dc8565b9150506119c3565b5050565b611abf611ab9611eb7565b83611fc2565b611afe576040517f08c379a0000000000000000000000000000000000000000000000000000000008152600401611af590613e82565b60405180910390fd5b611b0a84848484612583565b50505050565b6060611b1b826125df565b611b5a576040517f08c379a0000000000000000000000000000000000000000000000000000000008152600401611b5190614777565b60405180910390fd5b6000611b6461264b565b905060001515600c60029054906101000a900460ff16151503611bf05760006002424433604051602001611b9a93929190614800565b6040516020818303038152906040528051906020012060001c611bbd919061486c565b9050611bc8816126dd565b604051602001611bd89190614997565b60405160208183030381529060405292505050611c3d565b6000815111611c0e5760405180602001604052806000815250611c39565b80611c18846126dd565b604051602001611c299291906149c4565b6040516020818303038152906040525b9150505b919050565b611c4a6122bd565b600c60009054906101000a900460ff1615600c60006101000a81548160ff021916908315150217905550565b611c7e6122bd565b80600f8190555050565b6000600560008473ffffffffffffffffffffffffffffffffffffffff1673ffffffffffffffffffffffffffffffffffffffff16815260200190815260200160002060008373ffffffffffffffffffffffffffffffffffffffff1673ffffffffffffffffffffffffffffffffffffffff16815260200190815260200160002060009054906101000a900460ff16905092915050565b600c60009054906101000a900460ff1681565b611d376122bd565b600c60019054906101000a900460ff1615600c60016101000a81548160ff021916908315150217905550565b611d6b6122bd565b600073ffffffffffffffffffffffffffffffffffffffff168173ffffffffffffffffffffffffffffffffffffffff1603611dda576040517f08c379a0000000000000000000000000000000000000000000000000000000008152600401611dd190614a65565b60405180910390fd5b611de38161233b565b50565b61271081565b60105481565b60007f780e9d63000000000000000000000000000000000000000000000000000000007bffffffffffffffffffffffffffffffffffffffffffffffffffffffff1916827bffffffffffffffffffffffffffffffffffffffffffffffffffffffff19161480611e655750611e648261283d565b5b9050919050565b611e75816125df565b611eb4576040517f08c379a0000000000000000000000000000000000000000000000000000000008152600401611eab90614305565b60405180910390fd5b50565b600033905090565b816004600083815260200190815260200160002060006101000a81548173ffffffffffffffffffffffffffffffffffffffff021916908373ffffffffffffffffffffffffffffffffffffffff160217905550808273ffffffffffffffffffffffffffffffffffffffff16611f3283610ff5565b73ffffffffffffffffffffffffffffffffffffffff167f8c5be1e5ebec7d5bd14f71427d1e84f3dd0314c0f7b2291e5b200ac8c7c3b92560405160405180910390a45050565b60008183611f8691906146d1565b905092915050565b60008183611f9c9190614a85565b905092915050565b611fbe82826040518060200160405280600081525061291f565b5050565b600080611fce83610ff5565b90508073ffffffffffffffffffffffffffffffffffffffff168473ffffffffffffffffffffffffffffffffffffffff161480612010575061200f8185611c88565b5b8061204e57508373ffffffffffffffffffffffffffffffffffffffff16612036846109e1565b73ffffffffffffffffffffffffffffffffffffffff16145b91505092915050565b8273ffffffffffffffffffffffffffffffffffffffff1661207782610ff5565b73ffffffffffffffffffffffffffffffffffffffff16146120cd576040517f08c379a00000000000000000000000000000000000000000000000000000000081526004016120c490614b39565b60405180910390fd5b600073ffffffffffffffffffffffffffffffffffffffff168273ffffffffffffffffffffffffffffffffffffffff160361213c576040517f08c379a000000000000000000000000000000000000000000000000000000000815260040161213390614bcb565b60405180910390fd5b61214783838361297a565b612152600082611ebf565b6001600360008573ffffffffffffffffffffffffffffffffffffffff1673ffffffffffffffffffffffffffffffffffffffff16815260200190815260200160002060008282546121a29190614beb565b925050819055506001600360008473ffffffffffffffffffffffffffffffffffffffff1673ffffffffffffffffffffffffffffffffffffffff16815260200190815260200160002060008282546121f991906146d1565b92505081905550816002600083815260200190815260200160002060006101000a81548173ffffffffffffffffffffffffffffffffffffffff021916908373ffffffffffffffffffffffffffffffffffffffff160217905550808273ffffffffffffffffffffffffffffffffffffffff168473ffffffffffffffffffffffffffffffffffffffff167fddf252ad1be2c89b69c2b068fc378daa952ba7f163c4a11628f55a4df523b3ef60405160405180910390a46122b883838361298a565b505050565b6122c5611eb7565b73ffffffffffffffffffffffffffffffffffffffff166122e3611504565b73ffffffffffffffffffffffffffffffffffffffff1614612339576040517f08c379a000000000000000000000000000000000000000000000000000000000815260040161233090614c6b565b60405180910390fd5b565b6000600660009054906101000a900473ffffffffffffffffffffffffffffffffffffffff16905081600660006101000a81548173ffffffffffffffffffffffffffffffffffffffff021916908373ffffffffffffffffffffffffffffffffffffffff1602179055508173ffffffffffffffffffffffffffffffffffffffff168173ffffffffffffffffffffffffffffffffffffffff167f8be0079c531659141344cd1fd0a4f28419497f9722a3daafe3b4186f6b6457e060405160405180910390a35050565b6000818361240f9190614beb565b905092915050565b8173ffffffffffffffffffffffffffffffffffffffff168373ffffffffffffffffffffffffffffffffffffffff1603612485576040517f08c379a000000000000000000000000000000000000000000000000000000000815260040161247c90614cd7565b60405180910390fd5b80600560008573ffffffffffffffffffffffffffffffffffffffff1673ffffffffffffffffffffffffffffffffffffffff16815260200190815260200160002060008473ffffffffffffffffffffffffffffffffffffffff1673ffffffffffffffffffffffffffffffffffffffff16815260200190815260200160002060006101000a81548160ff0219169083151502179055508173ffffffffffffffffffffffffffffffffffffffff168373ffffffffffffffffffffffffffffffffffffffff167f17307eab39ab6107e8899845ad3d59bd9653f200f220920489ca2b5937696c3183604051612576919061324d565b60405180910390a3505050565b61258e848484612057565b61259a8484848461298f565b6125d9576040517f08c379a00000000000000000000000000000000000000000000000000000000081526004016125d090614d69565b60405180910390fd5b50505050565b60008073ffffffffffffffffffffffffffffffffffffffff166002600084815260200190815260200160002060009054906101000a900473ffffffffffffffffffffffffffffffffffffffff1673ffffffffffffffffffffffffffffffffffffffff1614159050919050565b6060600b805461265a906139f9565b80601f0160208091040260200160405190810160405280929190818152602001828054612686906139f9565b80156126d35780601f106126a8576101008083540402835291602001916126d3565b820191906000526020600020905b8154815290600101906020018083116126b657829003601f168201915b5050505050905090565b606060008203612724576040518060400160405280600181526020017f30000000000000000000000000000000000000000000000000000000000000008152509050612838565b600082905060005b6000821461275657808061273f90613dc8565b915050600a8261274f9190614d89565b915061272c565b60008167ffffffffffffffff811115612772576127716134f9565b5b6040519080825280601f01601f1916602001820160405280156127a45781602001600182028036833780820191505090505b5090505b60008514612831576001826127bd9190614beb565b9150600a856127cc919061486c565b60306127d891906146d1565b60f81b8183815181106127ee576127ed61400c565b5b60200101907effffffffffffffffffffffffffffffffffffffffffffffffffffffffffffff1916908160001a905350600a8561282a9190614d89565b94506127a8565b8093505050505b919050565b60007f80ac58cd000000000000000000000000000000000000000000000000000000007bffffffffffffffffffffffffffffffffffffffffffffffffffffffff1916827bffffffffffffffffffffffffffffffffffffffffffffffffffffffff1916148061290857507f5b5e139f000000000000000000000000000000000000000000000000000000007bffffffffffffffffffffffffffffffffffffffffffffffffffffffff1916827bffffffffffffffffffffffffffffffffffffffffffffffffffffffff1916145b80612918575061291782612b16565b5b9050919050565b6129298383612b80565b612936600084848461298f565b612975576040517f08c379a000000000000000000000000000000000000000000000000000000000815260040161296c90614d69565b60405180910390fd5b505050565b612985838383612d59565b505050565b505050565b60006129b08473ffffffffffffffffffffffffffffffffffffffff16612e6b565b15612b09578373ffffffffffffffffffffffffffffffffffffffff1663150b7a026129d9611eb7565b8786866040518563ffffffff1660e01b81526004016129fb9493929190614e0f565b6020604051808303816000875af1925050508015612a3757506040513d601f19601f82011682018060405250810190612a349190614e70565b60015b612ab9573d8060008114612a67576040519150601f19603f3d011682016040523d82523d6000602084013e612a6c565b606091505b506000815103612ab1576040517f08c379a0000000000000000000000000000000000000000000000000000000008152600401612aa890614d69565b60405180910390fd5b805181602001fd5b63150b7a0260e01b7bffffffffffffffffffffffffffffffffffffffffffffffffffffffff1916817bffffffffffffffffffffffffffffffffffffffffffffffffffffffff191614915050612b0e565b600190505b949350505050565b60007f01ffc9a7000000000000000000000000000000000000000000000000000000007bffffffffffffffffffffffffffffffffffffffffffffffffffffffff1916827bffffffffffffffffffffffffffffffffffffffffffffffffffffffff1916149050919050565b600073ffffffffffffffffffffffffffffffffffffffff168273ffffffffffffffffffffffffffffffffffffffff1603612bef576040517f08c379a0000000000000000000000000000000000000000000000000000000008152600401612be690614ee9565b60405180910390fd5b612bf8816125df565b15612c38576040517f08c379a0000000000000000000000000000000000000000000000000000000008152600401612c2f90614f55565b60405180910390fd5b612c446000838361297a565b6001600360008473ffffffffffffffffffffffffffffffffffffffff1673ffffffffffffffffffffffffffffffffffffffff1681526020019081526020016000206000828254612c9491906146d1565b92505081905550816002600083815260200190815260200160002060006101000a81548173ffffffffffffffffffffffffffffffffffffffff021916908373ffffffffffffffffffffffffffffffffffffffff160217905550808273ffffffffffffffffffffffffffffffffffffffff16600073ffffffffffffffffffffffffffffffffffffffff167fddf252ad1be2c89b69c2b068fc378daa952ba7f163c4a11628f55a4df523b3ef60405160405180910390a4612d556000838361298a565b5050565b612d64838383612e8e565b600073ffffffffffffffffffffffffffffffffffffffff168373ffffffffffffffffffffffffffffffffffffffff1603612da657612da181612e93565b612de5565b8173ffffffffffffffffffffffffffffffffffffffff168373ffffffffffffffffffffffffffffffffffffffff1614612de457612de38382612edc565b5b5b600073ffffffffffffffffffffffffffffffffffffffff168273ffffffffffffffffffffffffffffffffffffffff1603612e2757612e2281613049565b612e66565b8273ffffffffffffffffffffffffffffffffffffffff168273ffffffffffffffffffffffffffffffffffffffff1614612e6557612e64828261311a565b5b5b505050565b6000808273ffffffffffffffffffffffffffffffffffffffff163b119050919050565b505050565b600980549050600a600083815260200190815260200160002081905550600981908060018154018082558091505060019003906000526020600020016000909190919091505550565b60006001612ee984611134565b612ef39190614beb565b9050600060086000848152602001908152602001600020549050818114612fd8576000600760008673ffffffffffffffffffffffffffffffffffffffff1673ffffffffffffffffffffffffffffffffffffffff168152602001908152602001600020600084815260200190815260200160002054905080600760008773ffffffffffffffffffffffffffffffffffffffff1673ffffffffffffffffffffffffffffffffffffffff168152602001908152602001600020600084815260200190815260200160002081905550816008600083815260200190815260200160002081905550505b6008600084815260200190815260200160002060009055600760008573ffffffffffffffffffffffffffffffffffffffff1673ffffffffffffffffffffffffffffffffffffffff16815260200190815260200160002060008381526020019081526020016000206000905550505050565b6000600160098054905061305d9190614beb565b90506000600a600084815260200190815260200160002054905060006009838154811061308d5761308c61400c565b5b9060005260206000200154905080600983815481106130af576130ae61400c565b5b906000526020600020018190555081600a600083815260200190815260200160002081905550600a60008581526020019081526020016000206000905560098054806130fe576130fd614f75565b5b6001900381819060005260206000200160009055905550505050565b600061312583611134565b905081600760008573ffffffffffffffffffffffffffffffffffffffff1673ffffffffffffffffffffffffffffffffffffffff168152602001908152602001600020600083815260200190815260200160002081905550806008600084815260200190815260200160002081905550505050565b6000604051905090565b600080fd5b600080fd5b60007fffffffff0000000000000000000000000000000000000000000000000000000082169050919050565b6131e2816131ad565b81146131ed57600080fd5b50565b6000813590506131ff816131d9565b92915050565b60006020828403121561321b5761321a6131a3565b5b6000613229848285016131f0565b91505092915050565b60008115159050919050565b61324781613232565b82525050565b6000602082019050613262600083018461323e565b92915050565b600081519050919050565b600082825260208201905092915050565b60005b838110156132a2578082015181840152602081019050613287565b60008484015250505050565b6000601f19601f8301169050919050565b60006132ca82613268565b6132d48185613273565b93506132e4818560208601613284565b6132ed816132ae565b840191505092915050565b6000602082019050818103600083015261331281846132bf565b905092915050565b6000819050919050565b61332d8161331a565b811461333857600080fd5b50565b60008135905061334a81613324565b92915050565b600060208284031215613366576133656131a3565b5b60006133748482850161333b565b91505092915050565b600073ffffffffffffffffffffffffffffffffffffffff82169050919050565b60006133a88261337d565b9050919050565b6133b88161339d565b82525050565b60006020820190506133d360008301846133af565b92915050565b6133e28161339d565b81146133ed57600080fd5b50565b6000813590506133ff816133d9565b92915050565b6000806040838503121561341c5761341b6131a3565b5b600061342a858286016133f0565b925050602061343b8582860161333b565b9150509250929050565b61344e8161331a565b82525050565b60006020820190506134696000830184613445565b92915050565b600060208284031215613485576134846131a3565b5b6000613493848285016133f0565b91505092915050565b6000806000606084860312156134b5576134b46131a3565b5b60006134c3868287016133f0565b93505060206134d4868287016133f0565b92505060406134e58682870161333b565b9150509250925092565b600080fd5b600080fd5b7f4e487b7100000000000000000000000000000000000000000000000000000000600052604160045260246000fd5b613531826132ae565b810181811067ffffffffffffffff821117156135505761354f6134f9565b5b80604052505050565b6000613563613199565b905061356f8282613528565b919050565b600067ffffffffffffffff82111561358f5761358e6134f9565b5b613598826132ae565b9050602081019050919050565b82818337600083830152505050565b60006135c76135c284613574565b613559565b9050828152602081018484840111156135e3576135e26134f4565b5b6135ee8482856135a5565b509392505050565b600082601f83011261360b5761360a6134ef565b5b813561361b8482602086016135b4565b91505092915050565b60006020828403121561363a576136396131a3565b5b600082013567ffffffffffffffff811115613658576136576131a8565b5b613664848285016135f6565b91505092915050565b600080fd5b600080fd5b60008083601f84011261368d5761368c6134ef565b5b8235905067ffffffffffffffff8111156136aa576136a961366d565b5b6020830191508360208202830111156136c6576136c5613672565b5b9250929050565b600080602083850312156136e4576136e36131a3565b5b600083013567ffffffffffffffff811115613702576137016131a8565b5b61370e85828601613677565b92509250509250929050565b600081519050919050565b600082825260208201905092915050565b6000819050602082019050919050565b61374f8161331a565b82525050565b60006137618383613746565b60208301905092915050565b6000602082019050919050565b60006137858261371a565b61378f8185613725565b935061379a83613736565b8060005b838110156137cb5781516137b28882613755565b97506137bd8361376d565b92505060018101905061379e565b5085935050505092915050565b600060208201905081810360008301526137f2818461377a565b905092915050565b61380381613232565b811461380e57600080fd5b50565b600081359050613820816137fa565b92915050565b6000806040838503121561383d5761383c6131a3565b5b600061384b858286016133f0565b925050602061385c85828601613811565b9150509250929050565b600067ffffffffffffffff821115613881576138806134f9565b5b61388a826132ae565b9050602081019050919050565b60006138aa6138a584613866565b613559565b9050828152602081018484840111156138c6576138c56134f4565b5b6138d18482856135a5565b509392505050565b600082601f8301126138ee576138ed6134ef565b5b81356138fe848260208601613897565b91505092915050565b60008060008060808587031215613921576139206131a3565b5b600061392f878288016133f0565b9450506020613940878288016133f0565b93505060406139518782880161333b565b925050606085013567ffffffffffffffff811115613972576139716131a8565b5b61397e878288016138d9565b91505092959194509250565b600080604083850312156139a1576139a06131a3565b5b60006139af858286016133f0565b92505060206139c0858286016133f0565b9150509250929050565b7f4e487b7100000000000000000000000000000000000000000000000000000000600052602260045260246000fd5b60006002820490506001821680613a1157607f821691505b602082108103613a2457613a236139ca565b5b50919050565b7f4552433732313a20617070726f76616c20746f2063757272656e74206f776e6560008201527f7200000000000000000000000000000000000000000000000000000000000000602082015250565b6000613a86602183613273565b9150613a9182613a2a565b604082019050919050565b60006020820190508181036000830152613ab581613a79565b9050919050565b7f4552433732313a20617070726f76652063616c6c6572206973206e6f7420746f60008201527f6b656e206f776e6572206e6f7220617070726f76656420666f7220616c6c0000602082015250565b6000613b18603e83613273565b9150613b2382613abc565b604082019050919050565b60006020820190508181036000830152613b4781613b0b565b9050919050565b7f53616c65206d7573742062652061637469766520746f206d696e7420546f6b6560008201527f6e00000000000000000000000000000000000000000000000000000000000000602082015250565b6000613baa602183613273565b9150613bb582613b4e565b604082019050919050565b60006020820190508181036000830152613bd981613b9d565b9050919050565b7f43616e206f6e6c79206d696e74206f6e65206f72206d6f726520746f6b656e7360008201527f20617420612074696d6500000000000000000000000000000000000000000000602082015250565b6000613c3c602a83613273565b9150613c4782613be0565b604082019050919050565b60006020820190508181036000830152613c6b81613c2f565b9050919050565b7f507572636861736520776f756c6420657863656564206d617820737570706c7960008201527f206f6620746f6b656e7300000000000000000000000000000000000000000000602082015250565b6000613cce602a83613273565b9150613cd982613c72565b604082019050919050565b60006020820190508181036000830152613cfd81613cc1565b9050919050565b7f45746865722076616c75652073656e74206973206e6f7420636f727265637400600082015250565b6000613d3a601f83613273565b9150613d4582613d04565b602082019050919050565b60006020820190508181036000830152613d6981613d2d565b9050919050565b6000604082019050613d856000830185613445565b613d9260208301846133af565b9392505050565b7f4e487b7100000000000000000000000000000000000000000000000000000000600052601160045260246000fd5b6000613dd38261331a565b91507fffffffffffffffffffffffffffffffffffffffffffffffffffffffffffffffff8203613e0557613e04613d99565b5b600182019050919050565b7f4552433732313a2063616c6c6572206973206e6f7420746f6b656e206f776e6560008201527f72206e6f7220617070726f766564000000000000000000000000000000000000602082015250565b6000613e6c602e83613273565b9150613e7782613e10565b604082019050919050565b60006020820190508181036000830152613e9b81613e5f565b9050919050565b7f455243373231456e756d657261626c653a206f776e657220696e646578206f7560008201527f74206f6620626f756e6473000000000000000000000000000000000000000000602082015250565b6000613efe602b83613273565b9150613f0982613ea2565b604082019050919050565b60006020820190508181036000830152613f2d81613ef1565b9050919050565b600081905092915050565b50565b6000613f4f600083613f34565b9150613f5a82613f3f565b600082019050919050565b6000613f7082613f42565b9150819050919050565b7f455243373231456e756d657261626c653a20676c6f62616c20696e646578206f60008201527f7574206f6620626f756e64730000000000000000000000000000000000000000602082015250565b6000613fd6602c83613273565b9150613fe182613f7a565b604082019050919050565b6000602082019050818103600083015261400581613fc9565b9050919050565b7f4e487b7100000000000000000000000000000000000000000000000000000000600052603260045260246000fd5b60008190508160005260206000209050919050565b60006020601f8301049050919050565b600082821b905092915050565b60006008830261409d7fffffffffffffffffffffffffffffffffffffffffffffffffffffffffffffffff82614060565b6140a78683614060565b95508019841693508086168417925050509392505050565b6000819050919050565b60006140e46140df6140da8461331a565b6140bf565b61331a565b9050919050565b6000819050919050565b6140fe836140c9565b61411261410a826140eb565b84845461406d565b825550505050565b600090565b61412761411a565b6141328184846140f5565b505050565b5b818110156141565761414b60008261411f565b600181019050614138565b5050565b601f82111561419b5761416c8161403b565b61417584614050565b81016020851015614184578190505b61419861419085614050565b830182614137565b50505b505050565b600082821c905092915050565b60006141be600019846008026141a0565b1980831691505092915050565b60006141d783836141ad565b9150826002028217905092915050565b6141f082613268565b67ffffffffffffffff811115614209576142086134f9565b5b61421382546139f9565b61421e82828561415a565b600060209050601f831160018114614251576000841561423f578287015190505b61424985826141cb565b8655506142b1565b601f19841661425f8661403b565b60005b8281101561428757848901518255600182019150602085019450602081019050614262565b868310156142a457848901516142a0601f8916826141ad565b8355505b6001600288020188555050505b505050505050565b7f4552433732313a20696e76616c696420746f6b656e2049440000000000000000600082015250565b60006142ef601883613273565b91506142fa826142b9565b602082019050919050565b6000602082019050818103600083015261431e816142e2565b9050919050565b7f4552433732313a2061646472657373207a65726f206973206e6f74206120766160008201527f6c6964206f776e65720000000000000000000000000000000000000000000000602082015250565b6000614381602983613273565b915061438c82614325565b604082019050919050565b600060208201905081810360008301526143b081614374565b9050919050565b7f43616e27742061646420746865206e756c6c2061646472657373000000000000600082015250565b60006143ed601a83613273565b91506143f8826143b7565b602082019050919050565b6000602082019050818103600083015261441c816143e0565b9050919050565b7f4e6f7420656e6f7567682072657365727665206c65667420666f72207465616d600082015250565b6000614459602083613273565b915061446482614423565b602082019050919050565b600060208201905081810360008301526144888161444c565b9050919050565b7f50726573616c65206973206e6f74206163746976650000000000000000000000600082015250565b60006144c5601583613273565b91506144d08261448f565b602082019050919050565b600060208201905081810360008301526144f4816144b8565b9050919050565b7f596f7520617265206e6f74206f6e207468652050726573616c65204c69737400600082015250565b6000614531601f83613273565b915061453c826144fb565b602082019050919050565b6000602082019050818103600083015261456081614524565b9050919050565b7f507572636861736520776f756c6420657863656564206d617820737570706c7960008201527f206f6620746f6b656e0000000000000000000000000000000000000000000000602082015250565b60006145c3602983613273565b91506145ce82614567565b604082019050919050565b600060208201905081810360008301526145f2816145b6565b9050919050565b7f43616e6e6f742070757263686173652074686973206d616e7920746f6b656e73600082015250565b600061462f602083613273565b915061463a826145f9565b602082019050919050565b6000602082019050818103600083015261465e81614622565b9050919050565b7f50757263686173652065786365656473206d617820616c6c6f77656400000000600082015250565b600061469b601c83613273565b91506146a682614665565b602082019050919050565b600060208201905081810360008301526146ca8161468e565b9050919050565b60006146dc8261331a565b91506146e78361331a565b92508282019050808211156146ff576146fe613d99565b5b92915050565b7f4552433732314d657461646174613a2055524920717565727920666f72206e6f60008201527f6e6578697374656e7420746f6b656e0000000000000000000000000000000000602082015250565b6000614761602f83613273565b915061476c82614705565b604082019050919050565b6000602082019050818103600083015261479081614754565b9050919050565b6000819050919050565b6147b26147ad8261331a565b614797565b82525050565b60008160601b9050919050565b60006147d0826147b8565b9050919050565b60006147e2826147c5565b9050919050565b6147fa6147f58261339d565b6147d7565b82525050565b600061480c82866147a1565b60208201915061481c82856147a1565b60208201915061482c82846147e9565b601482019150819050949350505050565b7f4e487b7100000000000000000000000000000000000000000000000000000000600052601260045260246000fd5b60006148778261331a565b91506148828361331a565b9250826148925761489161483d565b5b828206905092915050565b600081905092915050565b7f697066733a2f2f516d5836707868436945596d586e316e6e51704562417a413860008201527f3777454e46436f3737793955694a776d31345337502f68696464656e00000000602082015250565b6000614904603c8361489d565b915061490f826148a8565b603c82019050919050565b600061492582613268565b61492f818561489d565b935061493f818560208601613284565b80840191505092915050565b7f2e6a736f6e000000000000000000000000000000000000000000000000000000600082015250565b600061498160058361489d565b915061498c8261494b565b600582019050919050565b60006149a2826148f7565b91506149ae828461491a565b91506149b982614974565b915081905092915050565b60006149d0828561491a565b91506149dc828461491a565b91506149e782614974565b91508190509392505050565b7f4f776e61626c653a206e6577206f776e657220697320746865207a65726f206160008201527f6464726573730000000000000000000000000000000000000000000000000000602082015250565b6000614a4f602683613273565b9150614a5a826149f3565b604082019050919050565b60006020820190508181036000830152614a7e81614a42565b9050919050565b6000614a908261331a565b9150614a9b8361331a565b9250828202614aa98161331a565b91508282048414831517614ac057614abf613d99565b5b5092915050565b7f4552433732313a207472616e736665722066726f6d20696e636f72726563742060008201527f6f776e6572000000000000000000000000000000000000000000000000000000602082015250565b6000614b23602583613273565b9150614b2e82614ac7565b604082019050919050565b60006020820190508181036000830152614b5281614b16565b9050919050565b7f4552433732313a207472616e7366657220746f20746865207a65726f2061646460008201527f7265737300000000000000000000000000000000000000000000000000000000602082015250565b6000614bb5602483613273565b9150614bc082614b59565b604082019050919050565b60006020820190508181036000830152614be481614ba8565b9050919050565b6000614bf68261331a565b9150614c018361331a565b9250828203905081811115614c1957614c18613d99565b5b92915050565b7f4f776e61626c653a2063616c6c6572206973206e6f7420746865206f776e6572600082015250565b6000614c55602083613273565b9150614c6082614c1f565b602082019050919050565b60006020820190508181036000830152614c8481614c48565b9050919050565b7f4552433732313a20617070726f766520746f2063616c6c657200000000000000600082015250565b6000614cc1601983613273565b9150614ccc82614c8b565b602082019050919050565b60006020820190508181036000830152614cf081614cb4565b9050919050565b7f4552433732313a207472616e7366657220746f206e6f6e20455243373231526560008201527f63656976657220696d706c656d656e7465720000000000000000000000000000602082015250565b6000614d53603283613273565b9150614d5e82614cf7565b604082019050919050565b60006020820190508181036000830152614d8281614d46565b9050919050565b6000614d948261331a565b9150614d9f8361331a565b925082614daf57614dae61483d565b5b828204905092915050565b600081519050919050565b600082825260208201905092915050565b6000614de182614dba565b614deb8185614dc5565b9350614dfb818560208601613284565b614e04816132ae565b840191505092915050565b6000608082019050614e2460008301876133af565b614e3160208301866133af565b614e3e6040830185613445565b8181036060830152614e508184614dd6565b905095945050505050565b600081519050614e6a816131d9565b92915050565b600060208284031215614e8657614e856131a3565b5b6000614e9484828501614e5b565b91505092915050565b7f4552433732313a206d696e7420746f20746865207a65726f2061646472657373600082015250565b6000614ed3602083613273565b9150614ede82614e9d565b602082019050919050565b60006020820190508181036000830152614f0281614ec6565b9050919050565b7f4552433732313a20746f6b656e20616c7265616479206d696e74656400000000600082015250565b6000614f3f601c83613273565b9150614f4a82614f09565b602082019050919050565b60006020820190508181036000830152614f6e81614f32565b9050919050565b7f4e487b7100000000000000000000000000000000000000000000000000000000600052603160045260246000fdfea26469706673582212204a2d7e4731e0706d7e1e803cc3295952cd0b40c8343090748101e19383f8017d64736f6c63430008110033",
  "linkReferences": {},
  "deployedLinkReferences": {}
}